:100000000C9463000C948B000C948B000C948B006C
:100010000C948B000C948B000C948B000C948B0034
:100020000C948B000C948B000C948B000C948B0024
:100030000C948B000C948B000C948B000C948B0014
:100040000C942B0F0C948B000C946A100C94B11030
:100050000C948B000C948B000C948B000C948B00F4
:100060000C948B000C948B000000000024002700EF
:100070002A0000000000250028002B0000000000DE
:1000800023002600290004040404040404040202DA
:100090000202020203030303030301020408102007
:1000A0004080010204081020010204081020000012
:1000B0000007000201000003040600000000000029
:1000C0000000AE0B171211241FBECFEFD8E0DEBF29
:1000D000CDBF12E0A0E0B1E0E2E8FAE202C0059094
:1000E0000D92AC38B107D9F713E0ACE8B2E001C02B
:1000F0001D92A635B107E1F710E0C6ECD0E004C0D0
:100100002297FE010E94BD14C23CD107C9F70E948C
:1001100067120C943F150C940000EF92FF920F931E
:100120001F937B018C0120E030E040E05FE40E94FF
:10013000090488238CF0C801B70120E030E040E0DA
:100140005FE40E9405020E94C7049B01AC0120509D
:1001500030404040504806C0C801B7010E94C70463
:100160009B01AC01B901CA011F910F91FF90EF9063
:100170000895A0E0B0E0EFEBF0E00C948414DC0113
:100180002B01FA019C91923008F439C1EB0188816E
:10019000823008F433C1943069F4843009F02FC1FF
:1001A00011969C9111978981981709F428C1A5E5AA
:1001B000B1E025C1843009F421C18230A9F4923024
:1001C00009F01DC19A01AD0188E0EA010990AE0174
:1001D000E90109929E018150C1F7E20189811196DE
:1001E0009C918923818308C1923009F407C112963A
:1001F0002D903C901397EB018A819B811496AD90D2
:10020000BD90CD90DC901797EC80FD800E811F8112
:100210009101281B390BB90137FF04C066277727E6
:10022000621B730B603271050CF061C0121613066D
:100230006CF537014801062E04C096948794779494
:1002400067940A94D2F721E030E040E050E004C027
:10025000220F331F441F551F6A95D2F7215030409B
:10026000404050402E213F2140235123211531058C
:100270004105510521F021E030E040E050E07901F6
:100280008A01E628F728082919293CC0232BD1F137
:10029000260E371E35014601062E04C0969487941B
:1002A000779467940A94D2F721E030E040E050E080
:1002B00004C0220F331F441F551F6A95D2F72150E7
:1002C0003040404050402A213B214C215D212115E6
:1002D00031054105510521F021E030E040E050E0DA
:1002E00059016A01A628B728C828D9280BC0821549
:1002F00093052CF01C01AA24BB24650103C0EE2445
:10030000FF24870111969C91D20111968C91981728
:1003100009F445C0992339F0A80197012A193B092E
:100320004C095D0906C0A60195012E193F09400B35
:10033000510B57FD08C011823382228224833583FA
:10034000468357831DC081E08183338222828827C0
:100350009927DC01821B930BA40BB50B8483958337
:10036000A683B7830DC0220F331F441F551F24835C
:100370003583468357838281938101979383828358
:100380002481358146815781DA01C9010197A1098C
:10039000B1098F5F9F4FAF4FBF4328F30BC09183CD
:1003A00033822282EA0CFB1C0C1D1D1DE482F582A7
:1003B0000683178383E080832481358146815781BA
:1003C00057FF1AC0C901AA2797FDA095BA2F8170BF
:1003D0009070A070B0705695479537952795822BF1
:1003E000932BA42BB52B84839583A683B78382811B
:1003F0009381019693838283DF0101C0D201CD01F5
:10040000CDB7DEB7E2E10C94A014A0E2B0E0EBE0DF
:10041000F2E00C94901469837A838B839C832D8300
:100420003E834F835887E9E0EE2EF12CEC0EFD1E43
:10043000CE010196B7010E94B8068E010F5E1F4FD4
:10044000CE010596B8010E94B8068A8991E08927F5
:100450008A8BC701B801AE01475E5F4F0E94B900A9
:100460000E94E305A096E6E00C94AC14A0E2B0E094
:10047000ECE3F2E00C94901469837A838B839C8381
:100480002D833E834F835887F9E0EF2EF12CEC0E3D
:10049000FD1ECE010196B7010E94B8068E010F5EC7
:1004A0001F4FCE010596B8010E94B806C701B801DA
:1004B000AE01475E5F4F0E94B9000E94E305A0961F
:1004C000E6E00C94AC14A0E2B0E0E9E6F2E00C94B3
:1004D000841469837A838B839C832D833E834F832B
:1004E0005887CE010196BE01675F7F4F0E94B80614
:1004F000CE010596BE016F5E7F4F0E94B8069985BA
:10050000923088F089898230C8F0943019F48230B2
:1005100051F404C0843029F4923081F485E591E0EF
:10052000C6C0923049F420E09A858A89981321E068
:100530002A87CE010996BBC0823049F420E09A8513
:100540008A89981321E02A8BCE014196B0C02D8470
:100550003E844F8458886D887E888F88988CEE24DE
:10056000FF248701AA24BB24650140E050E060E03D
:1005700070E0E0E0F0E0C10181709070892BE9F05B
:10058000E60CF71C081D191D9A01AB012A0D3B1D35
:100590004C1D5D1D80E090E0A0E0B0E0E614F704A3
:1005A0000805190520F481E090E0A0E0B0E0BA0170
:1005B000A901480F591F6A1F7B1FAA0CBB1CCC1C2A
:1005C000DD1C97FE08C081E090E0A0E0B0E0A82A22
:1005D000B92ACA2ADB2A3196E032F10549F0660CC5
:1005E000771C881C991C5694479437942794C3CF42
:1005F000FA85EA892B893C898B859C85280F391FD0
:100600002E5F3F4F17C0CA0181709070892B61F037
:1006100016950795F794E79480E090E0A0E0B0E8A5
:10062000E82AF92A0A2B1B2B76956795579547954B
:100630002F5F3F4F77FDE7CF0CC0440F551F661F5C
:10064000771F17FD4160EE0CFF1C001F111F21508A
:100650003040403090E0590790E0690790E4790716
:1006600060F32B8F3C8FDB01CA018F779070A070F5
:10067000B07080349105A105B10561F447FD0AC051
:10068000E114F1040105110529F0405C5F4F6F4F43
:100690007F4F40781A8EFE1711F081E08A8F4D8FC0
:1006A0005E8F6F8F78A383E0898FCE0149960E9479
:1006B000E305A096E2E10C94A014A8E1B0E0E3E623
:1006C000F3E00C948C1469837A838B839C832D8351
:1006D0003E834F835887B9E0EB2EF12CEC0EFD1EC4
:1006E000CE010196B7010E94B8068E010F5E1F4F22
:1006F000CE010596B8010E94B8062985223008F47B
:100700007EC03989323010F4B8017CC08A859A895C
:1007100089278A87243011F0223031F4231709F019
:100720006EC065E571E06EC0343039F41D861E86FA
:100730001F86188A1C861B8604C0323021F484E090
:100740008987B7015FC02B853C858B899C89281BD5
:10075000390B3C872B87ED84FE840F851889AD8883
:10076000BE88CF88D88CEA14FB040C051D0540F424
:10077000EE0CFF1C001F111F215030403C872B87BF
:1007800020E030E040E050E080E090E0A0E0B0E425
:1007900060E070E0EA14FB040C051D0540F0282B16
:1007A000392B4A2B5B2BEA18FB080C091D09B6955F
:1007B000A79597958795EE0CFF1C001F111F6F5F83
:1007C0007F4F6F31710531F7DA01C9018F77907072
:1007D000A070B07080349105A105B10561F427FDCA
:1007E0000AC0E114F1040105110529F0205C3F4F16
:1007F0004F4F5F4F20782D873E874F87588BBE0124
:10080000675F7F4FCB010E94E3056896EAE00C9496
:10081000A814A8E1B0E0EFE0F4E00C949014698330
:100820007A838B839C832D833E834F83588789E013
:10083000E82EF12CEC0EFD1ECE010196B7010E94B0
:10084000B8068E010F5E1F4FCE010596B8010E94BB
:10085000B8068985823040F08989823028F0C70146
:10086000B8010E94300701C08FEF6896E6E00C9453
:10087000AC14A8E1B0E0EFE3F4E00C9490146983C9
:100880007A838B839C832D833E834F83588789E0B3
:10089000E82EF12CEC0EFD1ECE010196B7010E9450
:1008A000B8068E010F5E1F4FCE010596B8010E945B
:1008B000B8068985823040F08989823028F0C701E6
:1008C000B8010E94300701C081E06896E6E00C9410
:1008D000AC14A8E0B0E0EFE6F4E00C948D149B01BA
:1008E000AC0183E08983DA01C9018827B7FD8395CC
:1008F0009927AA27BB27B82E211531054105510597
:1009000019F482E089833AC08823A9F0203080E07E
:10091000380780E0480780E8580729F460E070E075
:1009200080E09FEC30C0EE24FF248701E21AF30A36
:10093000040B150B02C079018A018EE1C82ED12C5F
:10094000DC82CB82ED82FE820F831887C801B7015B
:100950000E94940501971816190684F4082E04C005
:10096000EE0CFF1C001F111F0A94D2F7ED82FE82CD
:100970000F831887C81AD90ADC82CB82BA82CE01CB
:1009800001960E94E3052896E9E00C94A914ACE0D6
:10099000B0E0EDECF4E00C94941469837A838B83DB
:1009A0009C83CE010196BE016B5F7F4F0E94B8060B
:1009B0008D81823061F1823050F1843021F48E815A
:1009C000882351F12EC02F81388537FD20C06E81DC
:1009D0002F3131051CF06623F9F023C08EE190E041
:1009E000821B930B29853A854B855C8504C05695FF
:1009F0004795379527958A95D2F76623B1F050959C
:100A00004095309521953F4F4F4F5F4F0EC020E0EE
:100A100030E040E050E009C02FEF3FEF4FEF5FE7DD
:100A200004C020E030E040E050E8B901CA012C9653
:100A3000E2E00C94B014A8E0B0E0E1E2F5E00C9440
:100A40008C147B018C01611571058105910519F4E8
:100A500082E0898360C083E089838EE1C82ED12C37
:100A6000DC82CB82ED82FE820F831887C801B7013A
:100A70000E949405FC013197F7FF3BC022273327E2
:100A80002E1B3F0B57016801022E04C0D694C79459
:100A9000B794A7940A94D2F740E050E060E070E089
:100AA00081E090E0A0E0B0E004C0880F991FAA1F89
:100AB000BB1F2A95D2F70197A109B1098E219F2169
:100AC000A023B1230097A105B10521F041E050E03A
:100AD00060E070E04A295B296C297D294D835E83A3
:100AE0006F8378878EE190E08E1B9F0B9C838B83B6
:100AF00012C0309781F00E2E04C0EE0CFF1C001FB8
:100B0000111F0A94D2F7ED82FE820F831887CE1A46
:100B1000DF0ADC82CB821A82CE0101960E94E305B5
:100B20002896EAE00C94A814EF92FF920F931F937B
:100B30007B018C0180E0E81680E0F80681E0080780
:100B400080E0180788F48FEFE816F104010511051D
:100B500031F028F088E090E0A0E0B0E017C080E03D
:100B600090E0A0E0B0E012C080E0E81680E0F80677
:100B700080E0080781E0180728F088E190E0A0E015
:100B8000B0E004C080E190E0A0E0B0E020E230E01E
:100B900040E050E0281B390B4A0B5B0B04C0169554
:100BA0000795F794E7948A95D2F7F701E35AFE4F39
:100BB0008081281B310941095109C9011F910F91F9
:100BC000FF90EF900895DF92EF92FF920F931F93A3
:100BD000FC01E480F58006811781D180808182301C
:100BE00048F480E090E0A0E1B0E0E82AF92A0A2B7E
:100BF0001B2BA5C0843009F49FC0823021F4EE2461
:100C0000FF24870105C0E114F1040105110519F461
:100C1000E0E0F0E096C0628173819FEF623879076F
:100C20000CF05BC022E83FEF261B370B2A31310561
:100C30002CF020E030E040E050E02AC0B801A701ED
:100C4000022E04C076956795579547950A94D2F77A
:100C500081E090E0A0E0B0E004C0880F991FAA1FD7
:100C6000BB1F2A95D2F70197A109B1098E219F21B7
:100C7000A023B1230097A105B10521F081E090E008
:100C8000A0E0B0E09A01AB01282B392B4A2B5B2B5B
:100C9000DA01C9018F779070A070B070803491052F
:100CA000A105B10539F427FF09C0205C3F4F4F4F24
:100CB0005F4F04C0215C3F4F4F4F5F4FE0E0F0E0DB
:100CC0002030A0E03A07A0E04A07A0E45A0710F05D
:100CD000E1E0F0E079018A0127C06038710564F530
:100CE000FB01E158FF4FD801C7018F779070A070CA
:100CF000B07080349105A105B10539F4E7FE0DC04F
:100D000080E490E0A0E0B0E004C08FE390E0A0E0D9
:100D1000B0E0E80EF91E0A1F1B1F17FF05C016954D
:100D20000795F794E794319687E016950795F79421
:100D3000E7948A95D1F705C0EE24FF248701EFEFF1
:100D4000F0E06E2F679566276795902F9F77D79471
:100D5000DD24D7948E2F8695492F462B582F5D2959
:100D6000B701CA011F910F91FF90EF90DF90089596
:100D7000FC01DB01408151812281622F6F7770E09D
:100D8000221F2227221F9381892F880F822B282F31
:100D900030E0991F9927991F11969C93119721155F
:100DA0003105A9F5411551056105710511F482E080
:100DB00037C082E89FEF13969C938E9312979A0107
:100DC000AB0167E0220F331F441F551F6A95D1F70F
:100DD00083E08C930DC0220F331F441F551F1296C2
:100DE0008D919C911397019713969C938E931297D4
:100DF000203080E0380780E0480780E4580758F347
:100E000014962D933D934D935C93179708952F3F20
:100E1000310579F4411551056105710519F484E036
:100E20008C93089564FF03C081E08C9312C01C92E0
:100E300010C02F57304013963C932E93129783E0A7
:100E40008C9387E0440F551F661F771F8A95D1F753
:100E5000706414964D935D936D937C9317970895EA
:100E60001F93DC01FB019C91923008F447C0808104
:100E7000823008F443C0943051F411961C918430B0
:100E800099F58181682F70E0611B71093FC0843042
:100E900021F0923031F48230B9F18181882389F1D7
:100EA0002DC011961C9111978230F1F08181181795
:100EB000D9F412962D913C911397828193818217D8
:100EC000930794F028173907BCF014968D919D91E3
:100ED0000D90BC91A02D2481358146815781281722
:100EE00039074A075B0718F4112341F00AC082173B
:100EF0009307A407B50740F4112319F061E070E0EF
:100F000005C06FEF7FEF02C060E070E0CB011F9182
:100F10000895CF93DF93BC018230910510F462E015
:100F200070E0A0915403B0915503ED01E0E0F0E0D2
:100F300040E050E021C0888199818617970769F4C5
:100F40008A819B81309719F09383828304C09093A8
:100F5000550380935403FE0134C06817790738F4B1
:100F60004115510519F08417950708F4AC01FE01ED
:100F70008A819B819C01E9012097E9F64115510581
:100F8000A9F1CA01861B970B049708F4BA01E0E0A7
:100F9000F0E02AC08D919C91119784179507F9F480
:100FA0006417750781F412968D919C911397309771
:100FB00019F09383828304C0909355038093540364
:100FC000FD0132964CC0CA01861B970BFD01E80F4C
:100FD000F91F6193719302978D939C9340C0FD011B
:100FE000828193819C01D9011097A1F680915203CF
:100FF00090915303892B41F480915F02909160029C
:101000009093530380935203409161025091620286
:101010004115510541F44DB75EB780915D02909145
:101020005E02481B590B2091520330915303CA01B1
:10103000821B930B8617970780F0AB014E5F5F4FC3
:101040008417950750F0420F531F5093530340935A
:101050005203F9016193719302C0E0E0F0E0CF0127
:10106000DF91CF910895CF93DF93009709F450C09B
:10107000EC0122971B821A82A0915403B091550370
:10108000109709F140E050E0AC17BD0708F1BB83B1
:10109000AA83FE0121913191E20FF31FAE17BF0722
:1010A00079F48D919C911197280F391F2E5F3F4F36
:1010B0003983288312968D919C9113979B838A8301
:1010C0004115510571F4D0935503C093540320C0CA
:1010D00012968D919C911397AD01009711F0DC0150
:1010E000D3CFFA01D383C28321913191E20FF31F51
:1010F000CE17DF0769F488819981280F391F2E5F89
:101100003F4FFA01318320838A819B8193838283BD
:10111000DF91CF910895FC0188279927E8942191C8
:101120002032E9F3293010F02E30C8F32B3241F091
:101130002D3239F4689404C00E940509820F911D74
:10114000219120532A30C0F31EF4909581959F4F32
:1011500008951F93FC0199278827BC01E8941191F9
:101160001032E9F3193010F01E30C8F31B3251F081
:101170001D3249F4689406C00E94F008610F711D89
:10118000811D911D119110531A30B0F33EF49095CA
:101190008095709561957F4F8F4F9F4F1F91089558
:1011A000FB01DC010D900020E9F7119701900D92F1
:1011B0000020E1F70895FB01DC0101900D92002071
:1011C000E1F70895FB01DC014150504030F08D9172
:1011D0000190801919F40020B9F7881B990B089524
:1011E000592F482F372F262F660F771F881F991FDB
:1011F000660F771F881F991F620F731F841F951F2B
:10120000660F771F881F991F08957AE0979F902D8A
:10121000879F802D910D11240895AEE0B0E0E3E1A9
:10122000F9E00C9492140D891E8986E08C831A8350
:1012300009838FEF9FE79E838D839E01275E3F4F3B
:10124000CE0101966F89788DA9010E9431092F8105
:101250003885020F131FF80110822E96E4E00C94DB
:10126000AE14ABE0B0E0E7E3F9E00C9484143C0189
:101270002B015A01FC0117821682838181FD03C074
:101280006FEF7FEFC6C19AE0892E1E010894211CE2
:10129000311CF3012381F20123FD859123FF81910C
:1012A0002F01882309F4B2C1853239F423FD8591D9
:1012B00023FF81912F01853229F490E0B3010E9430
:1012C000240BE7CF982FFF24EE249924FFE1FF158C
:1012D000D0F09B3269F09C3228F4903259F093326E
:1012E00091F40EC09D3249F0903369F441E024C07E
:1012F00052E0F52A84E0F82A28C098E0F92A25C0AF
:10130000E0E1FE2A22C0F7FC29C0892F80538A30F1
:1013100070F4F6FE05C0989C902C1124980E15C010
:10132000E89CE02C1124E80EF0E2FF2A0EC09E3269
:1013300029F4F6FC6BC140E4F42A07C09C3619F48A
:1013400050E8F52A02C0983649F4F20123FD959140
:1013500023FF91912F01992309F0B8CF892F85544C
:10136000833018F08052833038F444E050E0A40E0B
:10137000B51E5FE359830FC0933631F0933779F090
:10138000933509F056C020C0F5018081898342E081
:1013900050E0A40EB51E610101E010E012C0F5019D
:1013A000C080D180F6FC03C06FEF7FEF02C0692DD3
:1013B00070E042E050E0A40EB51EC6010E94190B79
:1013C0008C015FE7F52214C0F501C080D180F6FCE6
:1013D00003C06FEF7FEF02C0692D70E042E050E084
:1013E000A40EB51EC6010E940E0B8C0150E8F52A12
:1013F000F3FE07C01AC080E290E0B3010E94240B04
:10140000EA948E2D90E008171907A8F30EC0F60194
:10141000F7FC8591F7FE81916F0190E0B3010E9486
:10142000240BE110EA94015010400115110579F7E1
:10143000EAC0943611F0993669F5F7FE08C0F50157
:10144000208131814281538184E090E00AC0F5011E
:10145000808191819C01442737FD4095542F82E083
:1014600090E0A80EB91E9FE6F92257FF09C05095DB
:101470004095309521953F4F4F4F5F4FE0E8FE2A52
:10148000CA01B901A1012AE030E00E94500BD82E18
:10149000D21840C0953729F41F2D1F7E2AE030E076
:1014A0001DC01F2D197F9F3661F0903720F49835AD
:1014B00009F0ACC00FC0903739F0983709F0A6C0DA
:1014C00004C028E030E00AC0106114FD146020E17F
:1014D00030E004C014FD166020E132E017FF08C0C0
:1014E000F501608171818281938144E050E008C000
:1014F000F50180819181BC0180E090E042E050E004
:10150000A40EB51EA1010E94500BD82ED2188FE751
:10151000F82EF122F6FE0BC05EEFF522D91438F456
:10152000F4FE07C0F2FC05C08FEEF82202C01D2DAC
:1015300001C0192DF4FE0DC0FE01ED0DF11D8081DD
:10154000803319F499EEF92208C01F5FF2FE05C03E
:1015500003C08F2D867809F01F5F0F2DF3FC14C098
:10156000F0FE0FC01E1510F09D2C0BC09D2C9E0C84
:10157000911A1E2D06C080E290E0B3010E94240B58
:101580001F5F1E15C0F304C01E1510F4E11A01C040
:10159000EE2404FF0FC080E390E0B3010E94240B0F
:1015A00002FF1DC001FD03C088E790E00EC088E582
:1015B00090E00BC0802F867891F001FF02C08BE293
:1015C00001C080E2F7FC8DE290E0B3010E94240BA1
:1015D00006C080E390E0B3010E94240B9A94D914D2
:1015E000C0F3DA94F101ED0DF11D808190E0B301BB
:1015F0000E94240BDD20A9F706C080E290E0B30131
:101600000E94240BEA94EE20C1F743CEF3016681D9
:101610007781CB012B96E2E10C94A014FC0105909C
:10162000615070400110D8F7809590958E0F9F1FE4
:101630000895FC016150704001900110D8F7809529
:1016400090958E0F9F1F08950F931F93CF93DF9355
:101650008C01EB018B8181FF1BC082FF0DC02E81AD
:101660003F818C819D812817390764F4E881F981D5
:101670000193F983E88306C0E885F985802F0995F1
:10168000892B31F48E819F8101969F838E8302C0C6
:101690000FEF1FEFC801DF91CF911F910F910895B8
:1016A000FA01AA27283051F1203181F1E8946F9393
:1016B0006E7F6E5F7F4F8F4F9F4FAF4FB1E03ED039
:1016C000B4E03CD0670F781F891F9A1FA11D680FD7
:1016D000791F8A1F911DA11D6A0F711D811D911D0A
:1016E000A11D20D009F468943F912AE0269F11247F
:1016F0003019305D3193DEF6CF010895462F4770E3
:10170000405D4193B3E00FD0C9F7F6CF462F4F703D
:10171000405D4A3318F0495D31FD4052419302D09B
:10172000A9F7EACFB4E0A695979587957795679541
:10173000BA95C9F700976105710508959B01AC0141
:101740000A2E06945795479537952795BA95C9F768
:10175000620F731F841F951FA01D08958CE892E0EF
:101760000E94331408952F923F924F925F926F928E
:101770007F928F929F92AF92BF92CF92DF92EF9221
:10178000FF920F931F93DF93CF93CDB7DEB7CC5269
:10179000D1400FB6F894DEBF0FBECDBF8CE892E00B
:1017A0000E940F148CE892E00E94F213882309F43F
:1017B0000AC18CE892E00E94F5134C01FC010190F3
:1017C0000020E9F73197E81BF90B9F0140E050E05A
:1017D000AA24BB2465010BC0F401EA0DFB1D808126
:1017E0008D3381F00894A11CB11CC11CD11CA21620
:1017F000B306C406D50684F3A216B306C406D506FE
:1018000009F4E1C0C40160E071E048E050E00E94EA
:10181000E208009739F50E94730F7B018C01C50126
:101820000196880D991D0E94A90828EE33E040E03A
:1018300050E00E944314E60EF71E081F191FE092A5
:101840009102F092920200939302109394020E94EC
:10185000730FE616F7060807190709F4B4C01092CB
:10186000A102B1C0C40169E071E04AE050E00E9409
:10187000E208009741F5C5010196880D991D0E9467
:101880008B088093A00280E090E020E030E040E010
:1018900050E0E0919902F0919A02E80FF91F20833D
:1018A00031834283538304968831910591F71092D6
:1018B0009B0210929C0210929D0210929E0281E067
:1018C00080939F0280C0C40164E171E04AE050E06F
:1018D0000E94E208009709F076C0C5010196880DC4
:1018E000991D0E94A9085B016C0119821A821B8252
:1018F0001C821D821E8222EF3EEF4FEF5FEFA20E91
:10190000B31EC41ED51E4E010894811C911C840177
:10191000E7E0EE2EF12CEC0EFD1E2CC0C601B50149
:1019200039E8A3163AE8B30631E0C30630E0D3063F
:1019300024F068E87AE881E090E028E735E74EEFA8
:101940005FEFA20EB31EC41ED51E0E94690420E0E4
:1019500030E040E853E40E94630220E034E445ECC8
:1019600057E40E945D030E94C1140E948D00D801BB
:101970006D938D011A141B041C041D041CF40E1518
:101980001F0561F6840177E0E72EF12CEC0EFD1EB9
:101990008AE060E00E941510802F88198EBD0DB47A
:1019A00007FEFDCF8EB5F80180818EBD0DB407FE18
:1019B000FDCF8EB58AE061E00E9415100F5F1F4FCA
:1019C0000E151F0529F78091910290919202A09126
:1019D0009302B09194020097A105B10509F4D1C01A
:1019E0008091A102882309F0CCC00E94730F20913E
:1019F00091023091920240919302509194026217A9
:101A000073078407950708F4BCC0AA24BB24882464
:101A1000992461E0462E512C57E9C52ED12CCC0ECD
:101A2000DD1E47E0E42EF12CEC0EFD1E35E3632EA7
:101A300031E0732E92010A2C02C0220F331F0A9448
:101A4000E2F730E08091A00290E082239323821796
:101A5000930709F06EC00091990210919A02080D47
:101A6000191D60919B0270919C0280919D02909142
:101A70009E020E9469049B01AC01D8016D917D9189
:101A80008D919C910E945D03F80160837183828334
:101A90009383C6016FE171E00E94DB08C60163E633
:101AA00072E00E94D008C6016BE271E00E94D0088B
:101AB000E0919902F0919A02E80DF91D608171811F
:101AC0008281938143E0970100E110E00E943C1382
:101AD000C601B7010E94D00800D000D000D0EDB7F9
:101AE000FEB73196ADB7BEB71296FC92EE92119743
:101AF00073826282A482B5820E940D09EDB7FEB79F
:101B000036960FB6F894FEBF0FBEEDBFC60168E370
:101B100071E00E94D008C601B7010E94D008C6013A
:101B20006EE371E00E94D0088CE892E0B6010E945A
:101B3000FC130894A11CB11C24E030E0820E931E1B
:101B400036E0A316B10409F075CF8E0109561F4F78
:101B5000C80160E471E00E94DB08C80163E672E03E
:101B60000E94D008C8016EE371E00E94D0088CE8A2
:101B700092E0B8010E94FC1381E08093A1021092D0
:101B80009F0280919F02882309F4CDC0E0909502C6
:101B9000F0909602009197021091980280EC94EDDB
:101BA000A1E0B0E0E80EF91E0A1F1B1F0E94730F90
:101BB000E616F7060807190708F4B5C08E01095E96
:101BC0001F4FC80168E471E00E94DB08CC24DD24CB
:101BD000AA24BB2421E0222E312C97E0692E712CFF
:101BE0006C0E7D1E8DE4482E81E0582E4801910137
:101BF0000C2C02C0220F331F0A94E2F730E08091D0
:101C0000A00290E0822393238217930709F056C025
:101C10008C2D0E94090F7C010091990210919A026B
:101C20000A0D1B1DB701882777FD8095982F0E940C
:101C3000690420E030E040EA50E40E94630220E0C2
:101C400030E040E85AE30E9463029B01AC01D801F6
:101C50006D917D918D919C910E943602F801608377
:101C60007183828393832DB73EB7285030400FB6DF
:101C7000F8943EBF0FBE2DBFEDB7FEB73196ADB79E
:101C8000BEB712967C926E92119753824282C482A2
:101C9000D582F782E6820E940D09EDB7FEB738962D
:101CA0000FB6F894FEBF0FBEEDBFC401B3010E9492
:101CB000D008C40163E571E00E94D0080894C11CFB
:101CC000D11C24E030E0A20EB31E36E0C316D104CE
:101CD00009F08DCF9E01295E3F4FD9010D90002064
:101CE000E9F71197A21BB30BE0913303F091340392
:101CF0000280F381E02D83E393E0B901AD01099502
:101D000080919B0290919C02A0919D02B0919E02B5
:101D10000196A11DB11D80939B0290939C02A093FC
:101D20009D02B0939E02C45DDE4F0FB6F894DEBFF5
:101D30000FBECDBFCF91DF911F910F91FF90EF901C
:101D4000DF90CF90BF90AF909F908F907F906F90DB
:101D50005F904F903F902F9008950F931F93DF93C4
:101D6000CF93CDB7DEB7C659D0400FB6F894DEBFDB
:101D70000FBECDBF83E393E040E855E260E070E042
:101D80000E94EC1088E190E00E94890780939902FC
:101D900090939A0210929F021092A00210929502C4
:101DA0001092960210929702109298021092A1023D
:101DB0001092910210929202109293021092940249
:101DC00060ED77E080E090E00E94810F8E010F5F70
:101DD0001F4FC80160E471E00E94DB08C80163E6A0
:101DE00072E00E94D008C8016EE371E00E94D00842
:101DF0008CE892E0B8010E94FC13CA56DF4F0FB680
:101E0000F894DEBF0FBECDBFCF91DF911F910F9130
:101E10000895982F8E3008F09E50977080917B0225
:101E20008295880F880F807C892B80937C0080911D
:101E30007A00806480937A0080917A0086FDFCCFDE
:101E40002091780040917900942F80E030E0282B99
:101E5000392BC90108951F920F920FB60F921124CA
:101E60002F933F938F939F93AF93BF938091A6023D
:101E70009091A702A091A802B091A9023091AA0264
:101E80000196A11DB11D232F2D5F2D3720F02D5759
:101E90000196A11DB11D2093AA028093A6029093E2
:101EA000A702A093A802B093A9028091A2029091E8
:101EB000A302A091A402B091A5020196A11DB11D9B
:101EC0008093A2029093A302A093A402B093A502D0
:101ED000BF91AF919F918F913F912F910F900FBE26
:101EE0000F901F9018958FB7F8942091A60230910B
:101EF000A7024091A8025091A9028FBFB901CA015F
:101F000008959B01AC017FB7F8948091A202909153
:101F1000A302A091A402B091A50266B5A89B05C03A
:101F20006F3F19F00196A11DB11D7FBFBA2FA92FD8
:101F3000982F8827860F911DA11DB11D62E0880F83
:101F4000991FAA1FBB1F6A95D1F7BC012DC0FFB70F
:101F5000F8948091A2029091A302A091A402B09162
:101F6000A502E6B5A89B05C0EF3F19F00196A11D9B
:101F7000B11DFFBFBA2FA92F982F88278E0F911D53
:101F8000A11DB11DE2E0880F991FAA1FBB1FEA9592
:101F9000D1F7861B970B885E9340C8F221503040E2
:101FA0004040504068517C4F211531054105510595
:101FB00071F60895789484B5826084BD84B581609B
:101FC00084BD85B5826085BD85B5816085BDEEE641
:101FD000F0E0808181608083E1E8F0E01082808120
:101FE00082608083808181608083E0E8F0E080818E
:101FF00081608083E1EBF0E0808184608083E0EBAE
:10200000F0E0808181608083EAE7F0E08081846095
:1020100080838081826080838081816080838081F1
:10202000806880831092C1000895482F50E0CA0153
:1020300082559F4FFC012491CA0186569F4FFC0197
:1020400094914A575F4FFA013491332309F440C009
:10205000222351F1233071F0243028F42130A1F0F3
:10206000223011F514C02630B1F02730C1F02430F1
:10207000D9F404C0809180008F7703C080918000E4
:102080008F7D8093800010C084B58F7702C084B5A7
:102090008F7D84BD09C08091B0008F7703C080918F
:1020A000B0008F7D8093B000E32FF0E0EE0FFF1FB4
:1020B000EE58FF4FA591B4912FB7F894662321F401
:1020C0008C919095892302C08C91892B8C932FBF82
:1020D000089508951F920F920FB60F9211242F9317
:1020E0003F934F938F939F93EF93FF934091C6003D
:1020F0002091EB023091EC022F5F3F4F2F73307035
:102100008091ED029091EE022817390759F0E09185
:10211000EB02F091EC02E555FD4F40833093EC0269
:102120002093EB02FF91EF919F918F914F913F91FF
:102130002F910F900FBE0F901F901895E0913F03C5
:10214000F0914003E05CFF4F8191919120813181BA
:10215000821B930B8F739070892B11F00E94691072
:1021600008951F920F920FB60F9211242F933F9351
:102170008F939F93EF93FF9320912F033091300320
:1021800080913103909132032817390731F48091FF
:10219000C1008F7D8093C10014C0E0913103F091A4
:1021A0003203E151FD4F2081809131039091320340
:1021B00001968F7390709093320380933103209334
:1021C000C600FF91EF919F918F913F912F910F90BA
:1021D0000FBE0F901F901895AF92BF92DF92EF92B3
:1021E000FF920F931F93CF93DF93EC017A018B0142
:1021F000DD24403081EE580780E0680780E07807F2
:1022000011F0DD24D39491E0A92EB12CEC89FD8945
:10221000DD2069F0C5010E8C02C0880F991F0A9459
:10222000E2F7808360E079E08DE390E005C0108202
:1022300060E874E88EE190E0A80197010E946214C2
:10224000215030404040504056954795379527954E
:1022500080E12030380720F0DD2011F0DD24D6CFDA
:10226000E889F9893083EA89FB892083EE89FF892F
:10227000408121E030E0C9010A8C02C0880F991F1B
:102280000A94E2F7482B4083EE89FF894081C90117
:102290000B8C02C0880F991F0A94E2F7482B4083E9
:1022A000EE89FF894081C9010C8C02C0880F991FFB
:1022B0000A94E2F7482B4083EE89FF8980810D8CD8
:1022C00002C0220F331F0A94E2F7209528232083AF
:1022D000DF91CF911F910F91FF90EF90DF90BF9012
:1022E000AF900895DC011C96ED91FC911D97E05C88
:1022F000FF4F2191319180819181281B390B2F73E0
:102300003070C9010895DC011C96ED91FC911D9778
:10231000E05CFF4F20813181E054F040DF01AE5B93
:10232000BF4F8D919C9111972817390719F42FEF02
:102330003FEF07C08D919C91E80FF91F8081282FF6
:1023400030E0C9010895DC011C96ED91FC911D97C8
:10235000E05CFF4F20813181E054F040DF01AE5B53
:10236000BF4F8D919C9111972817390719F42FEFC2
:102370003FEF10C08D919C911197E80FF91F2081BC
:102380008D919C91119701968F73907011969C93EB
:102390008E9330E0C9010895FC0186859785DC01A4
:1023A000A05CBF4FFC01EE5BFF4F2D913C9111975C
:1023B0008081918128173907C1F70895CF93DF9362
:1023C000EC01EE85FF85E05CFF4F20813181E05418
:1023D000F0402F5F3F4F2F733070DF01AE5BBF4F78
:1023E0008D919C91119728173907D1F3E05CFF4F2D
:1023F00080819181E054F040E80FF91F6083EE8501
:10240000FF85E05CFF4F31832083EE89FF892081C7
:1024100081E090E00D8C02C0880F991F0A94E2F7CA
:10242000282B208381E090E0DF91CF9108951092D6
:1024300036031092350388EE93E0A0E0B0E080937D
:10244000370390933803A0933903B0933A0380E89D
:1024500092E090933403809333038BEA92E090935D
:10246000400380933F038FEE92E09093420380936A
:10247000410385EC90E0909344038093430384EC04
:1024800090E0909346038093450380EC90E0909316
:1024900048038093470381EC90E090934A03809334
:1024A000490386EC90E090934C0380934B0384E0C7
:1024B00080934D0383E080934E0387E080934F0326
:1024C00085E08093500381E0809351030895CF937A
:1024D000DF930E94DA0F0E94AD0ECEE9D0E10E9498
:1024E000B30B2097E1F30E949E10F9CFCF92DF92B9
:1024F000EF92FF920F931F93CF93DF937C016B01B9
:102500008A01C0E0D0E00FC0D6016D916D01D70106
:10251000ED91FC910190F081E02DC7010995C80F64
:10252000D91F015010400115110571F7CE01DF913F
:10253000CF911F910F91FF90EF90DF90CF90089572
:102540002F923F925F926F927F928F929F92AF9263
:10255000BF92CF92DF92EF92FF920F931F93DF9380
:10256000CF93CDB7DEB72A970FB6F894DEBF0FBE74
:10257000CDBF6B017C013A014901502E4115510537
:1025800009F45FC02115310509F45BC0AA24BB24FE
:102590001E010894211C311C81010A0D1B1DC7015D
:1025A000B6012AE030E040E050E00E946214605D35
:1025B000D8016C930894A11CB11CC701B6012AE094
:1025C00030E040E050E00E946214C901DA016C0181
:1025D0007D01C114D104E104F10421F0BAE0AB168D
:1025E000B104D1F69501852D90E0A816B90610F03A
:1025F00000E002C0052D0A1940E050E0E0E3CE0102
:1026000001960DC0015006C021503040FC01E20F80
:10261000F31FE081D301ED933D014F5F5F4F0894BD
:10262000810891088114910449F02115310519F4AC
:10263000002341F703C0002339F3E4CFF3011082F4
:1026400002C040E050E0CA012A960FB6F894DEBFFF
:102650000FBECDBFCF91DF911F910F91FF90EF90F3
:10266000DF90CF90BF90AF909F908F907F906F90B2
:102670005F903F902F9008952F923F924F925F92DC
:102680006F927F928F929F92AF92BF92CF92DF9282
:10269000EF92FF920F931F93CF93DF935B016C0137
:1026A00049012115310509F48AC00115110509F404
:1026B00086C0242E86E0841710F496E0292EE801C7
:1026C000219709F47AC0C601B50120E030E040E06E
:1026D00050E00E943904882344F4D7FAD094D7F804
:1026E000D0948DE2F401808321970F2EF0E0EF2E3D
:1026F000F0E0FF2EF0E00F2FFFE31F2FF02D81E021
:10270000482E512C612C712C332415C0C801B701FF
:1027100020E030E040E251E40E945D037B018C0147
:10272000C301B2012AE030E040E050E00E944314CF
:102730002B013C013394321448F3209799F0C601E1
:10274000B501A80197010E9436025B016C010E944D
:102750008D00A4019E0100E00E94A012880E991E27
:10276000C81BD90B222049F1209739F18EE2F401E0
:1027700081934F01219709F1C601B5010E948D0097
:102780000E941B059B01AC01C601B5010E94050218
:102790007B018C01C301B2010E941B059B01AC01AE
:1027A000C801B7010E9463020E948D00A4019E012E
:1027B000022D0E94A012880E991EF4011082DF9152
:1027C000CF911F910F91FF90EF90DF90CF90BF902E
:1027D000AF909F908F907F906F905F904F903F90C1
:1027E0002F900895FC0184810895FC0114821382C6
:1027F0001282808191810895DB010D900020E9F71C
:102800001197A61BB70BE0913303F09134030280BC
:10281000F381E02D83E393E0AD0109950895CF9313
:10282000DF93EC0117C083E393E00E94A311E881DA
:10283000F9812A813B818A3031F4E20FF31F108243
:1028400081E08C830DC0E20FF31F80832F5F3F4F29
:102850003B832A8383E393E00E947211892B19F74B
:10286000DF91CF9108950F931F938C0180E890E042
:102870000E948907F8018083918313821282148257
:102880001F910F910895629FD001739FF001829F65
:10289000E00DF11D649FE00DF11D929FF00D839FEF
:1028A000F00D749FF00D659FF00D9927729FB00D8C
:1028B000E11DF91F639FB00DE11DF91FBD01CF019F
:1028C00011240895A1E21A2EAA1BBB1BFD010DC005
:1028D000AA1FBB1FEE1FFF1FA217B307E407F507D0
:1028E00020F0A21BB30BE40BF50B661F771F881FAC
:1028F000991F1A9469F760957095809590959B0142
:10290000AC01BD01CF0108952F923F924F925F928B
:102910006F927F928F929F92AF92BF92CF92DF92EF
:10292000EF92FF920F931F93CF93DF93CDB7DEB754
:10293000CA1BDB0B0FB6F894DEBF0FBECDBF0994E8
:102940002A88398848885F846E847D848C849B843F
:10295000AA84B984C884DF80EE80FD800C811B814D
:10296000AA81B981CE0FD11D0FB6F894DEBF0FBE7C
:10297000CDBFED010895EE0FFF1F0590F491E02DFE
:1029800009943DD080F09F3740F491110EF04FC074
:1029900060E070E080E89FEB089526F41B16611D4F
:1029A000711D811D01C01BC0882371F4772321F0A4
:1029B0009850872B762F07C0662311F499270DC0F6
:1029C0009051862B70E060E02AF09A95660F771F91
:1029D000881FDAF7880F9695879597F908959F3F96
:1029E00049F0915028F4869577956795B7959F5F44
:1029F00080389F4F880F9695879597F9089525D031
:102A0000A0F0BEE7B91788F4BB279F3860F416160C
:102A1000B11D672F782F8827985FF7CF8695779518
:102A20006795B11D93959639C8F30895E894BB272F
:102A300066277727CB0197F9089557FD9058440FE3
:102A4000551F59F05F3F71F04795880F97FB991F0D
:102A500061F09F3F79F087950895121613061406CA
:102A6000551FF2CF4695F1DF08C016161706180657
:102A7000991FF1CF86957105610508940895F89422
:022A8000FFCF86
:102A82007265616474696D650070696E73746F72EA
:102A920065616400726573697374616E6365006E6B
:102AA200657772656164696E673B00267265616471
:102AB200696E673D002564002670696E3D000A005C
:102AC2007570646174653B006C6F673B0025643D03
:102AD2002564003B0000000000000000000001022D
:102AE20002030303030404040404040404050505A7
:102AF2000505050505050505050505050506060681
:102B02000606060606060606060606060606060663
:102B12000606060606060606060606060607070750
:102B22000707070707070707070707070707070733
:102B32000707070707070707070707070707070723
:102B42000707070707070707070707070707070713
:102B52000707070707070707070707070708080800
:102B620008080808080808080808080808080808E3
:102B720008080808080808080808080808080808D3
:102B820008080808080808080808080808080808C3
:102B920008080808080808080808080808080808B3
:102BA20008080808080808080808080808080808A3
:102BB2000808080808080808080808080808080893
:102BC2000808080808080808080808080808080883
:102BD2000808080808080808080808080820005615
:102BE20003000073657269616C3D616263646566CE
:102BF2006768696A6B6C6D6E6F700001000000009F
:0C2C0200DE1176127211A3118311CC11A7
:00000001FF
