:100000000C9463000C948B000C948B000C948B006C
:100010000C948B000C948B000C948B000C948B0034
:100020000C948B000C948B000C948B000C948B0024
:100030000C948B000C948B000C948B000C948B0014
:100040000C944D0F0C948B000C94CB100C9412114B
:100050000C948B000C948B000C948B000C948B00F4
:100060000C948B000C948B000000000024002700EF
:100070002A0000000000250028002B0000000000DE
:1000800023002600290004040404040404040202DA
:100090000202020203030303030301020408102007
:1000A0004080010204081020010204081020000012
:1000B0000007000201000003040600000000000029
:1000C0000000AE0B781211241FBECFEFD8E0DEBFC8
:1000D000CDBF12E0A0E0B1E0EAEDFDE202C0059084
:1000E0000D92A23AB107D9F713E0A2EAB2E001C03B
:1000F0001D92AC36B107E1F710E0C6ECD0E004C0C9
:100100002297FE010E946916C23CD107C9F70E94DE
:10011000C8120C94EB160C940000EF92FF920F9310
:100120001F937B018C0120E030E040E05FE40E94FF
:10013000090488238CF0C801B70120E030E040E0DA
:100140005FE40E9405020E94C7049B01AC0120509D
:1001500030404040504806C0C801B7010E94C70463
:100160009B01AC01B901CA011F910F91FF90EF9063
:100170000895A0E0B0E0EFEBF0E00C943016DC0165
:100180002B01FA019C91923008F439C1EB0188816E
:10019000823008F433C1943069F4843009F02FC1FF
:1001A00011969C9111978981981709F428C1A6E6A8
:1001B000B1E025C1843009F421C18230A9F4923024
:1001C00009F01DC19A01AD0188E0EA010990AE0174
:1001D000E90109929E018150C1F7E20189811196DE
:1001E0009C918923818308C1923009F407C112963A
:1001F0002D903C901397EB018A819B811496AD90D2
:10020000BD90CD90DC901797EC80FD800E811F8112
:100210009101281B390BB90137FF04C066277727E6
:10022000621B730B603271050CF061C0121613066D
:100230006CF537014801062E04C096948794779494
:1002400067940A94D2F721E030E040E050E004C027
:10025000220F331F441F551F6A95D2F7215030409B
:10026000404050402E213F2140235123211531058C
:100270004105510521F021E030E040E050E07901F6
:100280008A01E628F728082919293CC0232BD1F137
:10029000260E371E35014601062E04C0969487941B
:1002A000779467940A94D2F721E030E040E050E080
:1002B00004C0220F331F441F551F6A95D2F72150E7
:1002C0003040404050402A213B214C215D212115E6
:1002D00031054105510521F021E030E040E050E0DA
:1002E00059016A01A628B728C828D9280BC0821549
:1002F00093052CF01C01AA24BB24650103C0EE2445
:10030000FF24870111969C91D20111968C91981728
:1003100009F445C0992339F0A80197012A193B092E
:100320004C095D0906C0A60195012E193F09400B35
:10033000510B57FD08C011823382228224833583FA
:10034000468357831DC081E08183338222828827C0
:100350009927DC01821B930BA40BB50B8483958337
:10036000A683B7830DC0220F331F441F551F24835C
:100370003583468357838281938101979383828358
:100380002481358146815781DA01C9010197A1098C
:10039000B1098F5F9F4FAF4FBF4328F30BC09183CD
:1003A00033822282EA0CFB1C0C1D1D1DE482F582A7
:1003B0000683178383E080832481358146815781BA
:1003C00057FF1AC0C901AA2797FDA095BA2F8170BF
:1003D0009070A070B0705695479537952795822BF1
:1003E000932BA42BB52B84839583A683B78382811B
:1003F0009381019693838283DF0101C0D201CD01F5
:10040000CDB7DEB7E2E10C944C16A0E2B0E0EBE031
:10041000F2E00C943C1669837A838B839C832D8352
:100420003E834F835887E9E0EE2EF12CEC0EFD1E43
:10043000CE010196B7010E94B8068E010F5E1F4FD4
:10044000CE010596B8010E94B8068A8991E08927F5
:100450008A8BC701B801AE01475E5F4F0E94B900A9
:100460000E94E305A096E6E00C945816A0E2B0E0E6
:10047000ECE3F2E00C943C1669837A838B839C83D3
:100480002D833E834F835887F9E0EF2EF12CEC0E3D
:10049000FD1ECE010196B7010E94B8068E010F5EC7
:1004A0001F4FCE010596B8010E94B806C701B801DA
:1004B000AE01475E5F4F0E94B9000E94E305A0961F
:1004C000E6E00C945816A0E2B0E0E9E6F2E00C9405
:1004D000301669837A838B839C832D833E834F837D
:1004E0005887CE010196BE01675F7F4F0E94B80614
:1004F000CE010596BE016F5E7F4F0E94B8069985BA
:10050000923088F089898230C8F0943019F48230B2
:1005100051F404C0843029F4923081F486E691E0ED
:10052000C6C0923049F420E09A858A89981321E068
:100530002A87CE010996BBC0823049F420E09A8513
:100540008A89981321E02A8BCE014196B0C02D8470
:100550003E844F8458886D887E888F88988CEE24DE
:10056000FF248701AA24BB24650140E050E060E03D
:1005700070E0E0E0F0E0C10181709070892BE9F05B
:10058000E60CF71C081D191D9A01AB012A0D3B1D35
:100590004C1D5D1D80E090E0A0E0B0E0E614F704A3
:1005A0000805190520F481E090E0A0E0B0E0BA0170
:1005B000A901480F591F6A1F7B1FAA0CBB1CCC1C2A
:1005C000DD1C97FE08C081E090E0A0E0B0E0A82A22
:1005D000B92ACA2ADB2A3196E032F10549F0660CC5
:1005E000771C881C991C5694479437942794C3CF42
:1005F000FA85EA892B893C898B859C85280F391FD0
:100600002E5F3F4F17C0CA0181709070892B61F037
:1006100016950795F794E79480E090E0A0E0B0E8A5
:10062000E82AF92A0A2B1B2B76956795579547954B
:100630002F5F3F4F77FDE7CF0CC0440F551F661F5C
:10064000771F17FD4160EE0CFF1C001F111F21508A
:100650003040403090E0590790E0690790E4790716
:1006600060F32B8F3C8FDB01CA018F779070A070F5
:10067000B07080349105A105B10561F447FD0AC051
:10068000E114F1040105110529F0405C5F4F6F4F43
:100690007F4F40781A8EFE1711F081E08A8F4D8FC0
:1006A0005E8F6F8F78A383E0898FCE0149960E9479
:1006B000E305A096E2E10C944C16A8E1B0E0E3E675
:1006C000F3E00C94381669837A838B839C832D83A3
:1006D0003E834F835887B9E0EB2EF12CEC0EFD1EC4
:1006E000CE010196B7010E94B8068E010F5E1F4F22
:1006F000CE010596B8010E94B8062985223008F47B
:100700007EC03989323010F4B8017CC08A859A895C
:1007100089278A87243011F0223031F4231709F019
:100720006EC066E671E06EC0343039F41D861E86F8
:100730001F86188A1C861B8604C0323021F484E090
:100740008987B7015FC02B853C858B899C89281BD5
:10075000390B3C872B87ED84FE840F851889AD8883
:10076000BE88CF88D88CEA14FB040C051D0540F424
:10077000EE0CFF1C001F111F215030403C872B87BF
:1007800020E030E040E050E080E090E0A0E0B0E425
:1007900060E070E0EA14FB040C051D0540F0282B16
:1007A000392B4A2B5B2BEA18FB080C091D09B6955F
:1007B000A79597958795EE0CFF1C001F111F6F5F83
:1007C0007F4F6F31710531F7DA01C9018F77907072
:1007D000A070B07080349105A105B10561F427FDCA
:1007E0000AC0E114F1040105110529F0205C3F4F16
:1007F0004F4F5F4F20782D873E874F87588BBE0124
:10080000675F7F4FCB010E94E3056896EAE00C9496
:100810005416A8E1B0E0EFE0F4E00C943C166983D4
:100820007A838B839C832D833E834F83588789E013
:10083000E82EF12CEC0EFD1ECE010196B7010E94B0
:10084000B8068E010F5E1F4FCE010596B8010E94BB
:10085000B8068985823040F08989823028F0C70146
:10086000B8010E94300701C08FEF6896E6E00C9453
:100870005816A8E1B0E0EFE3F4E00C943C1669836D
:100880007A838B839C832D833E834F83588789E0B3
:10089000E82EF12CEC0EFD1ECE010196B7010E9450
:1008A000B8068E010F5E1F4FCE010596B8010E945B
:1008B000B8068985823040F08989823028F0C701E6
:1008C000B8010E94300701C081E06896E6E00C9410
:1008D0005816A8E0B0E0EFE6F4E00C9439169B015E
:1008E000AC0183E08983DA01C9018827B7FD8395CC
:1008F0009927AA27BB27B82E211531054105510597
:1009000019F482E089833AC08823A9F0203080E07E
:10091000380780E0480780E8580729F460E070E075
:1009200080E09FEC30C0EE24FF248701E21AF30A36
:10093000040B150B02C079018A018EE1C82ED12C5F
:10094000DC82CB82ED82FE820F831887C801B7015B
:100950000E94940501971816190684F4082E04C005
:10096000EE0CFF1C001F111F0A94D2F7ED82FE82CD
:100970000F831887C81AD90ADC82CB82BA82CE01CB
:1009800001960E94E3052896E9E00C945516ACE028
:10099000B0E0EDECF4E00C94401669837A838B832D
:1009A0009C83CE010196BE016B5F7F4F0E94B8060B
:1009B0008D81823061F1823050F1843021F48E815A
:1009C000882351F12EC02F81388537FD20C06E81DC
:1009D0002F3131051CF06623F9F023C08EE190E041
:1009E000821B930B29853A854B855C8504C05695FF
:1009F0004795379527958A95D2F76623B1F050959C
:100A00004095309521953F4F4F4F5F4F0EC020E0EE
:100A100030E040E050E009C02FEF3FEF4FEF5FE7DD
:100A200004C020E030E040E050E8B901CA012C9653
:100A3000E2E00C945C16A8E0B0E0E1E2F5E00C9492
:100A400038167B018C01611571058105910519F43A
:100A500082E0898360C083E089838EE1C82ED12C37
:100A6000DC82CB82ED82FE820F831887C801B7013A
:100A70000E949405FC013197F7FF3BC022273327E2
:100A80002E1B3F0B57016801022E04C0D694C79459
:100A9000B794A7940A94D2F740E050E060E070E089
:100AA00081E090E0A0E0B0E004C0880F991FAA1F89
:100AB000BB1F2A95D2F70197A109B1098E219F2169
:100AC000A023B1230097A105B10521F041E050E03A
:100AD00060E070E04A295B296C297D294D835E83A3
:100AE0006F8378878EE190E08E1B9F0B9C838B83B6
:100AF00012C0309781F00E2E04C0EE0CFF1C001FB8
:100B0000111F0A94D2F7ED82FE820F831887CE1A46
:100B1000DF0ADC82CB821A82CE0101960E94E305B5
:100B20002896EAE00C945416EF92FF920F931F93CD
:100B30007B018C0180E0E81680E0F80681E0080780
:100B400080E0180788F48FEFE816F104010511051D
:100B500031F028F088E090E0A0E0B0E017C080E03D
:100B600090E0A0E0B0E012C080E0E81680E0F80677
:100B700080E0080781E0180728F088E190E0A0E015
:100B8000B0E004C080E190E0A0E0B0E020E230E01E
:100B900040E050E0281B390B4A0B5B0B04C0169554
:100BA0000795F794E7948A95D2F7F701E259FE4F3B
:100BB0008081281B310941095109C9011F910F91F9
:100BC000FF90EF900895DF92EF92FF920F931F93A3
:100BD000FC01E480F58006811781D180808182301C
:100BE00048F480E090E0A0E1B0E0E82AF92A0A2B7E
:100BF0001B2BA5C0843009F49FC0823021F4EE2461
:100C0000FF24870105C0E114F1040105110519F461
:100C1000E0E0F0E096C0628173819FEF623879076F
:100C20000CF05BC022E83FEF261B370B2A31310561
:100C30002CF020E030E040E050E02AC0B801A701ED
:100C4000022E04C076956795579547950A94D2F77A
:100C500081E090E0A0E0B0E004C0880F991FAA1FD7
:100C6000BB1F2A95D2F70197A109B1098E219F21B7
:100C7000A023B1230097A105B10521F081E090E008
:100C8000A0E0B0E09A01AB01282B392B4A2B5B2B5B
:100C9000DA01C9018F779070A070B070803491052F
:100CA000A105B10539F427FF09C0205C3F4F4F4F24
:100CB0005F4F04C0215C3F4F4F4F5F4FE0E0F0E0DB
:100CC0002030A0E03A07A0E04A07A0E45A0710F05D
:100CD000E1E0F0E079018A0127C06038710564F530
:100CE000FB01E158FF4FD801C7018F779070A070CA
:100CF000B07080349105A105B10539F4E7FE0DC04F
:100D000080E490E0A0E0B0E004C08FE390E0A0E0D9
:100D1000B0E0E80EF91E0A1F1B1F17FF05C016954D
:100D20000795F794E794319687E016950795F79421
:100D3000E7948A95D1F705C0EE24FF248701EFEFF1
:100D4000F0E06E2F679566276795902F9F77D79471
:100D5000DD24D7948E2F8695492F462B582F5D2959
:100D6000B701CA011F910F91FF90EF90DF90089596
:100D7000FC01DB01408151812281622F6F7770E09D
:100D8000221F2227221F9381892F880F822B282F31
:100D900030E0991F9927991F11969C93119721155F
:100DA0003105A9F5411551056105710511F482E080
:100DB00037C082E89FEF13969C938E9312979A0107
:100DC000AB0167E0220F331F441F551F6A95D1F70F
:100DD00083E08C930DC0220F331F441F551F1296C2
:100DE0008D919C911397019713969C938E931297D4
:100DF000203080E0380780E0480780E4580758F347
:100E000014962D933D934D935C93179708952F3F20
:100E1000310579F4411551056105710519F484E036
:100E20008C93089564FF03C081E08C9312C01C92E0
:100E300010C02F57304013963C932E93129783E0A7
:100E40008C9387E0440F551F661F771F8A95D1F753
:100E5000706414964D935D936D937C9317970895EA
:100E60001F93DC01FB019C91923008F447C0808104
:100E7000823008F443C0943051F411961C918430B0
:100E800099F58181682F70E0611B71093FC0843042
:100E900021F0923031F48230B9F18181882389F1D7
:100EA0002DC011961C9111978230F1F08181181795
:100EB000D9F412962D913C911397828193818217D8
:100EC000930794F028173907BCF014968D919D91E3
:100ED0000D90BC91A02D2481358146815781281722
:100EE00039074A075B0718F4112341F00AC082173B
:100EF0009307A407B50740F4112319F061E070E0EF
:100F000005C06FEF7FEF02C060E070E0CB011F9182
:100F10000895CF93DF93BC018230910510F462E015
:100F200070E0A0916A03B0916B03ED01E0E0F0E0A6
:100F300040E050E021C0888199818617970769F4C5
:100F40008A819B81309719F09383828304C09093A8
:100F50006B0380936A03FE0134C06817790738F485
:100F60004115510519F08417950708F4AC01FE01ED
:100F70008A819B819C01E9012097E9F64115510581
:100F8000A9F1CA01861B970B049708F4BA01E0E0A7
:100F9000F0E02AC08D919C91119784179507F9F480
:100FA0006417750781F412968D919C911397309771
:100FB00019F09383828304C090936B0380936A0338
:100FC000FD0132964CC0CA01861B970BFD01E80F4C
:100FD000F91F6193719302978D939C9340C0FD011B
:100FE000828193819C01D9011097A1F680916803B9
:100FF00090916903892B41F4809170029091710264
:101000009093690380936803409172025091730238
:101010004115510541F44DB75EB780916E02909134
:101020006F02481B590B2091680330916903CA0174
:10103000821B930B8617970780F0AB014E5F5F4FC3
:101040008417950750F0420F531F50936903409344
:101050006803F9016193719302C0E0E0F0E0CF0111
:10106000DF91CF910895CF93DF93009709F450C09B
:10107000EC0122971B821A82A0916A03B0916B0344
:10108000109709F140E050E0AC17BD0708F1BB83B1
:10109000AA83FE0121913191E20FF31FAE17BF0722
:1010A00079F48D919C911197280F391F2E5F3F4F36
:1010B0003983288312968D919C9113979B838A8301
:1010C0004115510571F4D0936B03C0936A0320C09E
:1010D00012968D919C911397AD01009711F0DC0150
:1010E000D3CFFA01D383C28321913191E20FF31F51
:1010F000CE17DF0769F488819981280F391F2E5F89
:101100003F4FFA01318320838A819B8193838283BD
:10111000DF91CF910895FC0188279927E8942191C8
:101120002032E9F3293010F02E30C8F32B3241F091
:101130002D3239F4689404C00E940509820F911D74
:10114000219120532A30C0F31EF4909581959F4F32
:1011500008951F93FC0199278827BC01E8941191F9
:101160001032E9F3193010F01E30C8F31B3251F081
:101170001D3249F4689406C00E94F008610F711D89
:10118000811D911D119110531A30B0F33EF49095CA
:101190008095709561957F4F8F4F9F4F1F91089558
:1011A000FB01DC010D900020E9F7119701900D92F1
:1011B0000020E1F70895FB01DC0101900D92002071
:1011C000E1F70895FB01DC014150504030F08D9172
:1011D0000190801919F40020B9F7881B990B089524
:1011E000592F482F372F262F660F771F881F991FDB
:1011F000660F771F881F991F620F731F841F951F2B
:10120000660F771F881F991F08957AE0979F902D8A
:10121000879F802D910D11240895AEE0B0E0E3E1A9
:10122000F9E00C943E160D891E8986E08C831A83A2
:1012300009838FEF9FE79E838D839E01275E3F4F3B
:10124000CE0101966F89788DA9010E9431092F8105
:101250003885020F131FF80110822E96E4E00C94DB
:101260005A16ABE0B0E0E7E3F9E00C9430163C012D
:101270002B015A01FC0117821682838181FD03C074
:101280006FEF7FEFC6C19AE0892E1E010894211CE2
:10129000311CF3012381F20123FD859123FF81910C
:1012A0002F01882309F4B2C1853239F423FD8591D9
:1012B00023FF81912F01853229F490E0B3010E9430
:1012C000240BE7CF982FFF24EE249924FFE1FF158C
:1012D000D0F09B3269F09C3228F4903259F093326E
:1012E00091F40EC09D3249F0903369F441E024C07E
:1012F00052E0F52A84E0F82A28C098E0F92A25C0AF
:10130000E0E1FE2A22C0F7FC29C0892F80538A30F1
:1013100070F4F6FE05C0989C902C1124980E15C010
:10132000E89CE02C1124E80EF0E2FF2A0EC09E3269
:1013300029F4F6FC6BC140E4F42A07C09C3619F48A
:1013400050E8F52A02C0983649F4F20123FD959140
:1013500023FF91912F01992309F0B8CF892F85544C
:10136000833018F08052833038F444E050E0A40E0B
:10137000B51E5FE359830FC0933631F0933779F090
:10138000933509F056C020C0F5018081898342E081
:1013900050E0A40EB51E610101E010E012C0F5019D
:1013A000C080D180F6FC03C06FEF7FEF02C0692DD3
:1013B00070E042E050E0A40EB51EC6010E94190B79
:1013C0008C015FE7F52214C0F501C080D180F6FCE6
:1013D00003C06FEF7FEF02C0692D70E042E050E084
:1013E000A40EB51EC6010E940E0B8C0150E8F52A12
:1013F000F3FE07C01AC080E290E0B3010E94240B04
:10140000EA948E2D90E008171907A8F30EC0F60194
:10141000F7FC8591F7FE81916F0190E0B3010E9486
:10142000240BE110EA94015010400115110579F7E1
:10143000EAC0943611F0993669F5F7FE08C0F50157
:10144000208131814281538184E090E00AC0F5011E
:10145000808191819C01442737FD4095542F82E083
:1014600090E0A80EB91E9FE6F92257FF09C05095DB
:101470004095309521953F4F4F4F5F4FE0E8FE2A52
:10148000CA01B901A1012AE030E00E94500BD82E18
:10149000D21840C0953729F41F2D1F7E2AE030E076
:1014A0001DC01F2D197F9F3661F0903720F49835AD
:1014B00009F0ACC00FC0903739F0983709F0A6C0DA
:1014C00004C028E030E00AC0106114FD146020E17F
:1014D00030E004C014FD166020E132E017FF08C0C0
:1014E000F501608171818281938144E050E008C000
:1014F000F50180819181BC0180E090E042E050E004
:10150000A40EB51EA1010E94500BD82ED2188FE751
:10151000F82EF122F6FE0BC05EEFF522D91438F456
:10152000F4FE07C0F2FC05C08FEEF82202C01D2DAC
:1015300001C0192DF4FE0DC0FE01ED0DF11D8081DD
:10154000803319F499EEF92208C01F5FF2FE05C03E
:1015500003C08F2D867809F01F5F0F2DF3FC14C098
:10156000F0FE0FC01E1510F09D2C0BC09D2C9E0C84
:10157000911A1E2D06C080E290E0B3010E94240B58
:101580001F5F1E15C0F304C01E1510F4E11A01C040
:10159000EE2404FF0FC080E390E0B3010E94240B0F
:1015A00002FF1DC001FD03C088E790E00EC088E582
:1015B00090E00BC0802F867891F001FF02C08BE293
:1015C00001C080E2F7FC8DE290E0B3010E94240BA1
:1015D00006C080E390E0B3010E94240B9A94D914D2
:1015E000C0F3DA94F101ED0DF11D808190E0B301BB
:1015F0000E94240BDD20A9F706C080E290E0B30131
:101600000E94240BEA94EE20C1F743CEF3016681D9
:101610007781CB012B96E2E10C944C16FC010590EE
:10162000615070400110D8F7809590958E0F9F1FE4
:101630000895FC016150704001900110D8F7809529
:1016400090958E0F9F1F08950F931F93CF93DF9355
:101650008C01EB018B8181FF1BC082FF0DC02E81AD
:101660003F818C819D812817390764F4E881F981D5
:101670000193F983E88306C0E885F985802F0995F1
:10168000892B31F48E819F8101969F838E8302C0C6
:101690000FEF1FEFC801DF91CF911F910F910895B8
:1016A000FA01AA27283051F1203181F1E8946F9393
:1016B0006E7F6E5F7F4F8F4F9F4FAF4FB1E03ED039
:1016C000B4E03CD0670F781F891F9A1FA11D680FD7
:1016D000791F8A1F911DA11D6A0F711D811D911D0A
:1016E000A11D20D009F468943F912AE0269F11247F
:1016F0003019305D3193DEF6CF010895462F4770E3
:10170000405D4193B3E00FD0C9F7F6CF462F4F703D
:10171000405D4A3318F0495D31FD4052419302D09B
:10172000A9F7EACFB4E0A695979587957795679541
:10173000BA95C9F700976105710508959B01AC0141
:101740000A2E06945795479537952795BA95C9F768
:10175000620F731F841F951FA01D089582EA92E0F7
:101760000E94DF1508952F923F924F925F926F92E1
:101770007F928F929F92AF92BF92CF92DF92EF9221
:10178000FF920F931F93DF93CF93CDB7DEB7CC5269
:10179000D1400FB6F894DEBF0FBECDBF82EA92E013
:1017A0000E94BB1582EA92E00E949E15882309F4EC
:1017B00015C182EA92E00E94A1154C01FC01019042
:1017C0000020E9F73197E81BF90B9F0140E050E05A
:1017D000AA24BB2465010BC0F401EA0DFB1D808126
:1017E0008D3381F00894A11CB11CC11CD11CA21620
:1017F000B306C406D50684F3A216B306C406D506FE
:1018000009F4ECC0C40160E071E048E050E00E94DF
:10181000E208009739F50E94950F7B018C01C50104
:101820000196880D991D0E94A90828EE33E040E03A
:1018300050E00E94EF15E60EF71E081F191FE092F8
:10184000A702F092A8020093A9021093AA020E9494
:10185000950FE616F7060807190709F4BFC010929E
:10186000B702BCC0C40169E071E04AE050E00E94E8
:10187000E208009741F5C5010196880D991D0E9467
:101880008B088093B60280E090E020E030E040E0FA
:1018900050E0E091AF02F091B002E80FF91F208311
:1018A00031834283538304968831910591F71092D6
:1018B000B1021092B2021092B3021092B40281E00F
:1018C0008093B5028BC0C40164E171E04AE050E04E
:1018D0000E94E208009709F081C089E493E06FE17B
:1018E00071E00E941A14C5010196880D991D0E948D
:1018F000A9087B018C0189E493E0B801A7012AE0E3
:1019000030E00E9406141A821B821C821D821E82F5
:10191000A0908C02B0908D02C0908E02D0908F0269
:10192000809190022DE2829FC0011124AA2797FD89
:10193000A095BA2FA8019701281B390B4A0B5B0B06
:10194000CA01B901A216B306C406D50614F4C6012D
:10195000B5010E94690420E030E040E853E40E94B1
:1019600063027B018C01C601B5010E9469049B01E1
:10197000AC01C801B7010E945D030E946D160E9470
:101980008D0069836E010894C11CD11C860177E02B
:10199000A72EB12CAC0EBD1ED801EC9089E493E0CB
:1019A0006E2D4AE050E00E94A8138AE060E00E9499
:1019B0007610802F8C198EBD0DB407FEFDCF8EB52D
:1019C000EEBC0DB407FEFDCF8EB58AE061E00E944B
:1019D00076100F5F1F4F0A151B05F1F68091A702C5
:1019E0009091A802A091A902B091AA020097A10526
:1019F000B10509F4DDC08091B702882309F0D8C091
:101A00000E94950F2091A7023091A8024091A9024F
:101A10005091AA02621773078407950708F4C8C09B
:101A2000AA24BB248824992461E0462E512C57E92E
:101A3000C52ED12CCC0EDD1E47E0E42EF12CEC0E91
:101A4000FD1E36E4632E31E0732E92010A2C02C093
:101A5000220F331F0A94E2F730E08091B60290E043
:101A6000822393238217930709F07AC00091AF0273
:101A70001091B002080D191D6091B1027091B2026F
:101A80008091B3029091B4020E9469049B01AC0161
:101A9000F80160817181828193810E945D03D80188
:101AA0006D937D938D939C9313972AE036E44DE9D3
:101AB0005BE30E946302F8016083718382839383F6
:101AC000C60160E371E00E94DB08C60164E772E0D2
:101AD0000E94D008C6016CE371E00E94D008E0913A
:101AE000AF02F091B002E80DF91D60817181828131
:101AF000938143E0970100E110E00E94E814C601E1
:101B0000B7010E94D00800D000D000D0EDB7FEB7DA
:101B10003196ADB7BEB71296FC92EE9211977382D2
:101B20006282A482B5820E940D09EDB7FEB7369697
:101B30000FB6F894FEBF0FBEEDBFC60169E471E0B9
:101B40000E94D008C601B7010E94D008C6016FE408
:101B500071E00E94D00882EA92E0B6010E94A815C6
:101B60000894A11CB11C24E030E0820E931E36E0E4
:101B7000A316B10409F069CF8E0109561F4FC801A1
:101B800061E571E00E94DB08C80164E772E00E9431
:101B9000D008C8016FE471E00E94D00882EA92E0A8
:101BA000B8010E94A81581E08093B7021092B50297
:101BB0008091B502882309F4D0C0E090AB02F09088
:101BC000AC020091AD021091AE0280EC94EDA1E068
:101BD000B0E0E80EF91E0A1F1B1F0E94950F6E153C
:101BE0007F058007910708F4B8C08E01095E1F4F7A
:101BF000C80169E571E00E94DB08CC24DD24AA2439
:101C0000BB2421E0222E312C97E0692E712C6C0E22
:101C10007D1E8EE5482E81E0582E480191010C2C46
:101C200002C0220F331F0A94E2F730E08091B6021F
:101C300090E0822393238217930709F04AC08C2DEA
:101C40000E942B0F7C010091AF021091B0020A0D8F
:101C50001B1DB701882777FD8095982F0E94690486
:101C60009B01AC01D8016D917D918D919C910E9459
:101C70003602F80160837183828393832DB73EB768
:101C8000285030400FB6F8943EBF0FBE2DBFEDB7C1
:101C9000FEB73196ADB7BEB712967C926E92119791
:101CA00053824282C482D582F782E6820E940D0965
:101CB000EDB7FEB738960FB6F894FEBF0FBEEDBF76
:101CC000C401B3010E94D008C40164E671E00E941F
:101CD000D0080894C11CD11C24E030E0A20EB31E31
:101CE00036E0C316D10409F099CF8E01095E1F4F6B
:101CF000C8016FE471E00E94D008D8010D90002067
:101D0000E9F71197A01BB10BE0914903F0914A0349
:101D10000280F381E02D89E493E0B801AD010995DB
:101D20008091B1029091B202A091B302B091B4023D
:101D30000196A11DB11D8093B1029093B202A093B0
:101D4000B302B093B4020E94950F6093AB027093FC
:101D5000AC028093AD029093AE02C45DDE4F0FB62D
:101D6000F894DEBF0FBECDBFCF91DF911F910F91D1
:101D7000FF90EF90DF90CF90BF90AF909F908F90AB
:101D80007F906F905F904F903F902F9008950F93AA
:101D90001F93DF93CF93CDB7DEB7C659D0400FB6B0
:101DA000F894DEBF0FBECDBF80E00E94280F89E40B
:101DB00093E040E855E260E070E00E944D110E941F
:101DC0002D1488E190E00E9489078093AF029093E0
:101DD000B0021092B5021092B6021092AB021092AD
:101DE000AC021092AD021092AE021092B7021092A5
:101DF000A7021092A8021092A9021092AA0260ED06
:101E000077E080E090E00E94A30F8E010F5F1F4FEC
:101E1000C80161E571E00E94DB08C80164E772E077
:101E20000E94D008C8016FE471E00E94D00882EAE5
:101E300092E0B8010E94A815CA56DF4F0FB6F89479
:101E4000DEBF0FBECDBFCF91DF911F910F910895DF
:101E5000809391020895982F8E3008F09E509770CD
:101E6000809191028295880F880F807C892B8093C6
:101E70007C0080917A00806480937A0080917A005F
:101E800086FDFCCF2091780040917900942F80E06E
:101E900030E0282B392BC90108951F920F920FB6FD
:101EA0000F9211242F933F938F939F93AF93BF93E0
:101EB0008091BC029091BD02A091BE02B091BF0280
:101EC0003091C0020196A11DB11D232F2D5F2D372A
:101ED00020F02D570196A11DB11D2093C0028093C3
:101EE000BC029093BD02A093BE02B093BF0280914A
:101EF000B8029091B902A091BA02B091BB020196CA
:101F0000A11DB11D8093B8029093B902A093BA02AB
:101F1000B093BB02BF91AF919F918F913F912F9151
:101F20000F900FBE0F901F9018958FB7F8942091C7
:101F3000BC023091BD024091BE025091BF028FBFE2
:101F4000B901CA0108959B01AC017FB7F894809153
:101F5000B8029091B902A091BA02B091BB0266B5E5
:101F6000A89B05C06F3F19F00196A11DB11D7FBF51
:101F7000BA2FA92F982F8827860F911DA11DB11D5B
:101F800062E0880F991FAA1FBB1F6A95D1F7BC0199
:101F90002DC0FFB7F8948091B8029091B902A0913A
:101FA000BA02B091BB02E6B5A89B05C0EF3F19F09D
:101FB0000196A11DB11DFFBFBA2FA92F982F882709
:101FC0008E0F911DA11DB11DE2E0880F991FAA1F60
:101FD000BB1FEA95D1F7861B970B885E9340C8F22A
:101FE000215030404040504068517C4F2115310510
:101FF0004105510571F60895789484B5826084BDD9
:1020000084B5816084BD85B5826085BD85B58160FC
:1020100085BDEEE6F0E0808181608083E1E8F0E05C
:102020001082808182608083808181608083E0E88B
:10203000F0E0808181608083E1EBF0E0808184606A
:102040008083E0EBF0E0808181608083EAE7F0E06C
:1020500080818460808380818260808380818160D0
:1020600080838081806880831092C1000895CF931F
:10207000DF93482F50E0CA0186569F4FFC013491F0
:102080004A575F4FFA018491882369F190E0880FE5
:10209000991FFC01E859FF4FA591B491FC01EE583E
:1020A000FF4FC591D491662351F42FB7F8948C91CA
:1020B000932F909589238C93888189230BC062305C
:1020C00061F42FB7F8948C91932F909589238C937A
:1020D0008881832B88832FBF06C09FB7F8948C918B
:1020E000832B8C939FBFDF91CF910895482F50E0B1
:1020F000CA0182559F4FFC012491CA0186569F4F09
:10210000FC0194914A575F4FFA013491332309F44B
:1021100040C0222351F1233071F0243028F42130C3
:10212000A1F0223011F514C02630B1F02730C1F0F3
:102130002430D9F404C0809180008F7703C080914F
:1021400080008F7D8093800010C084B58F7702C09F
:1021500084B58F7D84BD09C08091B0008F7703C0A6
:102160008091B0008F7D8093B000E32FF0E0EE0F00
:10217000FF1FEE58FF4FA591B4912FB7F894662337
:1021800021F48C919095892302C08C91892B8C939A
:102190002FBF089508951F920F920FB60F9211242A
:1021A0002F933F934F938F939F93EF93FF93409180
:1021B000C60020910103309102032F5F3F4F2F7320
:1021C000307080910303909104032817390759F068
:1021D000E0910103F0910203EF53FD4F40833093F0
:1021E000020320930103FF91EF919F918F914F91F3
:1021F0003F912F910F900FBE0F901F901895E09177
:102200005503F0915603E05CFF4F8191919120813D
:102210003181821B930B8F739070892B11F00E9478
:10222000CA1008951F920F920FB60F9211242F9388
:102230003F938F939F93EF93FF93209145033091AA
:10224000460380914703909148032817390731F4DA
:102250008091C1008F7D8093C10014C0E09147033D
:10226000F0914803EB5FFC4F2081809147039091F0
:10227000480301968F7390709093480380934703AF
:102280002093C600FF91EF919F918F913F912F91E5
:102290000F900FBE0F901F901895AF92BF92DF92D4
:1022A000EF92FF920F931F93CF93DF93EC017A018C
:1022B0008B01DD24403081EE580780E0680780E024
:1022C000780711F0DD24D39491E0A92EB12CEC898C
:1022D000FD89DD2069F0C5010E8C02C0880F991FB1
:1022E0000A94E2F7808360E079E08DE390E005C036
:1022F000108260E874E88EE190E0A80197010E94E6
:102300000E16215030404040504056954795379525
:10231000279580E12030380720F0DD2011F0DD2402
:10232000D6CFE889F9893083EA89FB892083EE8951
:10233000FF89408121E030E0C9010A8C02C0880F8A
:10234000991F0A94E2F7482B4083EE89FF89408168
:10235000C9010B8C02C0880F991F0A94E2F7482B21
:102360004083EE89FF894081C9010C8C02C0880F2F
:10237000991F0A94E2F7482B4083EE89FF898081F8
:102380000D8C02C0220F331F0A94E2F720952823F8
:102390002083DF91CF911F910F91FF90EF90DF90FD
:1023A000BF90AF900895DC011C96ED91FC911D97B4
:1023B000E05CFF4F2191319180819181281B390B85
:1023C0002F733070C9010895DC011C96ED91FC91CA
:1023D0001D97E05CFF4F20813181E054F040DF0128
:1023E000AE5BBF4F8D919C9111972817390719F457
:1023F0002FEF3FEF07C08D919C91E80FF91F80816F
:10240000282F30E0C9010895DC011C96ED91FC9164
:102410001D97E05CFF4F20813181E054F040DF01E7
:10242000AE5BBF4F8D919C9111972817390719F416
:102430002FEF3FEF10C08D919C911197E80FF91F7E
:1024400020818D919C91119701968F7390701196B8
:102450009C938E9330E0C9010895FC018685978591
:10246000DC01A05CBF4FFC01EE5BFF4F2D913C9166
:1024700011978081918128173907C1F70895CF936B
:10248000DF93EC01EE85FF85E05CFF4F2081318119
:10249000E054F0402F5F3F4F2F733070DF01AE5B91
:1024A000BF4F8D919C91119728173907D1F3E05CAC
:1024B000FF4F80819181E054F040E80FF91F608365
:1024C000EE85FF85E05CFF4F31832083EE89FF8935
:1024D000208181E090E00D8C02C0880F991F0A9442
:1024E000E2F7282B208381E090E0DF91CF910895DF
:1024F00010924C0310924B0388EE93E0A0E0B0E002
:1025000080934D0390934E03A0934F03B0935003D9
:1025100086E992E090934A038093490381EC92E02C
:10252000909356038093550385E093E0909358036E
:102530008093570385EC90E090935A03809359035E
:1025400084EC90E090935C0380935B0380EC90E0DC
:1025500090935E0380935D0381EC90E09093600321
:1025600080935F0386EC90E0909362038093610315
:1025700084E08093630383E08093640387E0809327
:10258000650385E08093660381E080936703089587
:10259000CF93DF930E94FC0F0E94C70ECFEFD0E1D4
:1025A0000E94B30B2097E1F30E94FF10F9CFCF9266
:1025B000DF92EF92FF920F931F93CF93DF937C01F3
:1025C0006B018A01C0E0D0E00FC0D6016D916D01B2
:1025D000D701ED91FC910190F081E02DC7010995A3
:1025E000C80FD91F015010400115110571F7CE0118
:1025F000DF91CF911F910F91FF90EF90DF90CF90DF
:102600000895EF92FF920F931F938C01DC01ED91DF
:10261000FC910190F081E02D6DE009957C01D801DD
:10262000ED91FC910190F081E02DC8016AE00995DF
:102630009C012E0D3F1DC9011F910F91FF90EF903E
:102640000895CF93DF93DB010D900020E9F71197F8
:10265000A61BB70BEC01E881F9810280F381E02D24
:10266000AD010995DF91CF9108954F925F927F92CE
:102670008F929F92AF92BF92CF92DF92EF92FF9292
:102680000F931F93DF93CF93CDB7DEB7A1970FB60C
:10269000F894DEBF0FBECDBF2C01742ECB012230CB
:1026A00008F42AE019A231E2C32ED12CCC0EDD1E93
:1026B000822E9924AA24BB24672D752FA50194018D
:1026C0000E940E1679018A01C801B701A501940183
:1026D0000E94EF15472D461B0894C108D1084A30C7
:1026E00010F4405D01C0495CF6014083E114F1043F
:1026F0000105110521F07E2C5F2DC801DDCFC2013F
:10270000B6010E942113A1960FB6F894DEBF0FBE4A
:10271000CDBFCF91DF911F910F91FF90EF90DF9090
:10272000CF90BF90AF909F908F907F905F904F9091
:102730000895DC012115310541F4ED91FC910190E2
:10274000F081E02D642F099508950E9435130895B6
:10275000CF92DF92EF92FF920F931F936C01E62EC0
:102760009A01FF2400E010E0B801A7010E9499132C
:102770008C01C6010E940113080F191FC8011F9187
:102780000F91FF90EF90DF90CF900895CF92DF925E
:10279000EF92FF920F931F93CF93DF93EC016A01A7
:1027A0007B012115310541F4E881F9810190F08127
:1027B000E02D642F09951FC02A303105D1F477FF31
:1027C00017C0E881F9810190F081E02D6DE2099553
:1027D0008C0144275527BA014C195D096E097F0900
:1027E000CE012AE00E9435139801280F391F04C03A
:1027F0002AE00E9435139C01C901DF91CF911F91FE
:102800000F91FF90EF90DF90CF900895EF92FF929D
:102810000F931F937C010E94C6138C01C7010E9475
:1028200001139C01200F311FC9011F910F91FF90CF
:10283000EF900895EF92FF920F931F937C010E94F7
:1028400021138C01C7010E940113080F191FC80131
:102850001F910F91FF90EF9008958DE061E00E942D
:1028600037108BE061E00E9437108AE061E00E943F
:1028700037108DE060E00E9476108BE060E00E94EF
:1028800076108AE061E00E9476108CB580618CBD84
:102890008CB580648CBD08952F923F925F926F92A9
:1028A0007F928F929F92AF92BF92CF92DF92EF92E0
:1028B000FF920F931F93DF93CF93CDB7DEB72A9785
:1028C0000FB6F894DEBF0FBECDBF6B017C013A019D
:1028D0004901502E4115510509F45FC021153105FC
:1028E00009F45BC0AA24BB241E010894211C311CDE
:1028F00081010A0D1B1DC701B6012AE030E040E04E
:1029000050E00E940E16605DD8016C930894A11CE3
:10291000B11CC701B6012AE030E040E050E00E945F
:102920000E16C901DA016C017D01C114D104E10464
:10293000F10421F0BAE0AB16B104D1F69501852D72
:1029400090E0A816B90610F000E002C0052D0A19A3
:1029500040E050E0E0E3CE0101960DC0015006C01A
:1029600021503040FC01E20FF31FE081D301ED93D1
:102970003D014F5F5F4F08948108910881149104D5
:1029800049F02115310519F4002341F703C0002354
:1029900039F3E4CFF301108202C040E050E0CA01F5
:1029A0002A960FB6F894DEBF0FBECDBFCF91DF9150
:1029B0001F910F91FF90EF90DF90CF90BF90AF905D
:1029C0009F908F907F906F905F903F902F90089591
:1029D0002F923F924F925F926F927F928F929F922F
:1029E000AF92BF92CF92DF92EF92FF920F931F931D
:1029F000CF93DF935B016C0149012115310509F487
:102A00008AC00115110509F486C0242E86E08417BA
:102A100010F496E0292EE801219709F47AC0C60146
:102A2000B50120E030E040E050E00E943904882306
:102A300044F4D7FAD094D7F8D0948DE2F40180838F
:102A400021970F2EF0E0EF2EF0E0FF2EF0E00F2F99
:102A5000FFE31F2FF02D81E0482E512C612C712CAB
:102A6000332415C0C801B70120E030E040E251E452
:102A70000E945D037B018C01C301B2012AE030E0BA
:102A800040E050E00E94EF152B013C0133943214DA
:102A900048F3209799F0C601B501A80197010E945B
:102AA00036025B016C010E948D00A4019E0100E0D2
:102AB0000E944C14880E991EC81BD90B222049F184
:102AC000209739F18EE2F40181934F01219709F1AA
:102AD000C601B5010E948D000E941B059B01AC013F
:102AE000C601B5010E9405027B018C01C301B20140
:102AF0000E941B059B01AC01C801B7010E94630243
:102B00000E948D00A4019E01022D0E944C14880E8B
:102B1000991EF4011082DF91CF911F910F91FF90C8
:102B2000EF90DF90CF90BF90AF909F908F907F906D
:102B30006F905F904F903F902F900895FC0184819B
:102B40000895FC011482138212828081918108957C
:102B5000DB010D900020E9F71197A61BB70BE09160
:102B60004903F0914A030280F381E02D89E493E068
:102B7000AD0109950895CF93DF93EC0117C089E467
:102B800093E00E940412E881F9812A813B818A3016
:102B900031F4E20FF31F108281E08C830DC0E20F4D
:102BA000F31F80832F5F3F4F3B832A8389E493E0A9
:102BB0000E94D311892B19F7DF91CF9108950F93BC
:102BC0001F938C0180E890E00E948907F8018083C0
:102BD00091831382128214821F910F910895629F34
:102BE000D001739FF001829FE00DF11D649FE00D05
:102BF000F11D929FF00D839FF00D749FF00D659F66
:102C0000F00D9927729FB00DE11DF91F639FB00D64
:102C1000E11DF91FBD01CF0111240895A1E21A2E73
:102C2000AA1BBB1BFD010DC0AA1FBB1FEE1FFF1F70
:102C3000A217B307E407F50720F0A21BB30BE40BC0
:102C4000F50B661F771F881F991F1A9469F7609507
:102C50007095809590959B01AC01BD01CF010895C1
:102C60002F923F924F925F926F927F928F929F929C
:102C7000AF92BF92CF92DF92EF92FF920F931F938A
:102C8000CF93DF93CDB7DEB7CA1BDB0B0FB6F8943B
:102C9000DEBF0FBECDBF09942A88398848885F847B
:102CA0006E847D848C849B84AA84B984C884DF80EC
:102CB000EE80FD800C811B81AA81B981CE0FD11DD0
:102CC0000FB6F894DEBF0FBECDBFED010895EE0F35
:102CD000FF1F0590F491E02D09943DD080F09F37BF
:102CE00040F491110EF04FC060E070E080E89FEB7F
:102CF000089526F41B16611D711D811D01C01BC0A6
:102D0000882371F4772321F09850872B762F07C002
:102D1000662311F499270DC09051862B70E060E076
:102D20002AF09A95660F771F881FDAF7880F969515
:102D3000879597F908959F3F49F0915028F486951B
:102D400077956795B7959F5F80389F4F880F9695C9
:102D5000879597F9089525D0A0F0BEE7B91788F4B4
:102D6000BB279F3860F41616B11D672F782F882770
:102D7000985FF7CF869577956795B11D93959639AE
:102D8000C8F30895E894BB2766277727CB0197F906
:102D9000089557FD9058440F551F59F05F3F71F04B
:102DA0004795880F97FB991F61F09F3F79F08795B2
:102DB0000895121613061406551FF2CF4695F1DF3B
:102DC00008C0161617061806991FF1CF86957105CB
:0A2DD000610508940895F894FFCF00
:102DDA007265616474696D650070696E73746F728F
:102DEA0065616400726573697374616E6365006519
:102DFA006E74657220726573697374616E636500BF
:102E0A006E657772656164696E673B0026726561FB
:102E1A0064696E673D002564002670696E3D000A8C
:102E2A00007570646174653B006C6F673B002564D4
:102E3A003D2564003B000000000000000000000186
:102E4A00020203030303040404040404040405053E
:102E5A000505050505050505050505050505060616
:102E6A0006060606060606060606060606060606F8
:102E7A0006060606060606060606060606060707E6
:102E8A0007070707070707070707070707070707C8
:102E9A0007070707070707070707070707070707B8
:102EAA0007070707070707070707070707070707A8
:102EBA000707070707070707070707070707080896
:102ECA000808080808080808080808080808080878
:102EDA000808080808080808080808080808080868
:102EEA000808080808080808080808080808080858
:102EFA000808080808080808080808080808080848
:102F0A000808080808080808080808080808080837
:102F1A000808080808080808080808080808080827
:102F2A000808080808080808080808080808080817
:102F3A0008080808080808080808080808082000F7
:102F4A006C03000073657269616C3D61626364655C
:102F5A00666768696A6B6C6D6E6F7000448D0100FC
:102F6A000101000000003F12D712D3110412E4112C
:022F7A002D1216
:00000001FF
